{
  "_format": "hh-sol-artifact-1",
  "contractName": "Marketplace",
  "sourceName": "src/backend/contracts/Marketplace.sol",
  "abi": [
    {
      "inputs": [
        {
          "internalType": "uint256",
          "name": "_feePercent",
          "type": "uint256"
        }
      ],
      "stateMutability": "nonpayable",
      "type": "constructor"
    },
    {
      "anonymous": false,
      "inputs": [
        {
          "indexed": false,
          "internalType": "uint256",
          "name": "itemId",
          "type": "uint256"
        },
        {
          "indexed": true,
          "internalType": "address",
          "name": "nft",
          "type": "address"
        },
        {
          "indexed": false,
          "internalType": "uint256",
          "name": "tokenId",
          "type": "uint256"
        },
        {
          "indexed": false,
          "internalType": "uint256",
          "name": "price",
          "type": "uint256"
        },
        {
          "indexed": true,
          "internalType": "address",
          "name": "seller",
          "type": "address"
        },
        {
          "indexed": true,
          "internalType": "address",
          "name": "buyer",
          "type": "address"
        }
      ],
      "name": "Bought",
      "type": "event"
    },
    {
      "anonymous": false,
      "inputs": [
        {
          "indexed": false,
          "internalType": "uint256",
          "name": "itemId",
          "type": "uint256"
        },
        {
          "indexed": true,
          "internalType": "address",
          "name": "nft",
          "type": "address"
        },
        {
          "indexed": false,
          "internalType": "uint256",
          "name": "tokenId",
          "type": "uint256"
        },
        {
          "indexed": false,
          "internalType": "uint256",
          "name": "price",
          "type": "uint256"
        },
        {
          "indexed": true,
          "internalType": "address",
          "name": "seller",
          "type": "address"
        }
      ],
      "name": "Offered",
      "type": "event"
    },
    {
      "inputs": [],
      "name": "feeAccount",
      "outputs": [
        {
          "internalType": "address payable",
          "name": "",
          "type": "address"
        }
      ],
      "stateMutability": "view",
      "type": "function"
    },
    {
      "inputs": [],
      "name": "feePercent",
      "outputs": [
        {
          "internalType": "uint256",
          "name": "",
          "type": "uint256"
        }
      ],
      "stateMutability": "view",
      "type": "function"
    },
    {
      "inputs": [
        {
          "internalType": "uint256",
          "name": "_itemId",
          "type": "uint256"
        }
      ],
      "name": "getTotalPrice",
      "outputs": [
        {
          "internalType": "uint256",
          "name": "",
          "type": "uint256"
        }
      ],
      "stateMutability": "view",
      "type": "function"
    },
    {
      "inputs": [],
      "name": "itemCount",
      "outputs": [
        {
          "internalType": "uint256",
          "name": "",
          "type": "uint256"
        }
      ],
      "stateMutability": "view",
      "type": "function"
    },
    {
      "inputs": [
        {
          "internalType": "uint256",
          "name": "",
          "type": "uint256"
        }
      ],
      "name": "items",
      "outputs": [
        {
          "internalType": "uint256",
          "name": "itemId",
          "type": "uint256"
        },
        {
          "internalType": "contract IERC721",
          "name": "nft",
          "type": "address"
        },
        {
          "internalType": "uint256",
          "name": "tokenId",
          "type": "uint256"
        },
        {
          "internalType": "uint256",
          "name": "price",
          "type": "uint256"
        },
        {
          "internalType": "address payable",
          "name": "seller",
          "type": "address"
        },
        {
          "internalType": "bool",
          "name": "sold",
          "type": "bool"
        },
        {
          "internalType": "uint256",
          "name": "ModelNumber",
          "type": "uint256"
        },
        {
          "internalType": "uint256",
          "name": "warrantyPeriod",
          "type": "uint256"
        }
      ],
      "stateMutability": "view",
      "type": "function"
    },
    {
      "inputs": [
        {
          "internalType": "contract IERC721",
          "name": "_nft",
          "type": "address"
        },
        {
          "internalType": "uint256",
          "name": "_tokenId",
          "type": "uint256"
        },
        {
          "internalType": "uint256",
          "name": "_price",
          "type": "uint256"
        },
        {
          "internalType": "uint256",
          "name": "_warrantyPeriod",
          "type": "uint256"
        },
        {
          "internalType": "uint256",
          "name": "_modelNum",
          "type": "uint256"
        }
      ],
      "name": "makeItem",
      "outputs": [],
      "stateMutability": "nonpayable",
      "type": "function"
    },
    {
      "inputs": [
        {
          "internalType": "uint256",
          "name": "_itemId",
          "type": "uint256"
        }
      ],
      "name": "purchaseItem",
      "outputs": [],
      "stateMutability": "payable",
      "type": "function"
    }
  ],
  "bytecode": "0x60c060405234801561001057600080fd5b5060405161121338038061121383398181016040528101906100329190610094565b60016000819055503373ffffffffffffffffffffffffffffffffffffffff1660808173ffffffffffffffffffffffffffffffffffffffff1660601b815250508060a08181525050506100de565b60008151905061008e816100c7565b92915050565b6000602082840312156100a657600080fd5b60006100b48482850161007f565b91505092915050565b6000819050919050565b6100d0816100bd565b81146100db57600080fd5b50565b60805160601c60a0516110ff610114600039600081816101e8015261059a0152600081816101be01526107c001526110ff6000f3fe6080604052600436106100705760003560e01c806398d296741161004e57806398d29674146100f6578063bfb231d21461011f578063ca7dd37514610163578063d38ea5bf146101a057610070565b806365e17c9d146100755780636bfb0d01146100a05780637fd6f15c146100cb575b600080fd5b34801561008157600080fd5b5061008a6101bc565b6040516100979190610b89565b60405180910390f35b3480156100ac57600080fd5b506100b56101e0565b6040516100c29190610c7b565b60405180910390f35b3480156100d757600080fd5b506100e06101e6565b6040516100ed9190610c7b565b60405180910390f35b34801561010257600080fd5b5061011d600480360381019061011891906109ef565b61020a565b005b34801561012b57600080fd5b5061014660048036038101906101419190610a66565b6104ff565b60405161015a989796959493929190610c96565b60405180910390f35b34801561016f57600080fd5b5061018a60048036038101906101859190610a66565b610594565b6040516101979190610c7b565b60405180910390f35b6101ba60048036038101906101b59190610a66565b6105f7565b005b7f000000000000000000000000000000000000000000000000000000000000000081565b60015481565b7f000000000000000000000000000000000000000000000000000000000000000081565b60026000541415610250576040517f08c379a000000000000000000000000000000000000000000000000000000000815260040161024790610c5b565b60405180910390fd5b60026000819055506000831161029b576040517f08c379a000000000000000000000000000000000000000000000000000000000815260040161029290610bfb565b60405180910390fd5b600160008154809291906102ae90610f01565b91905055508473ffffffffffffffffffffffffffffffffffffffff166323b872dd3330876040518463ffffffff1660e01b81526004016102f093929190610ba4565b600060405180830381600087803b15801561030a57600080fd5b505af115801561031e573d6000803e3d6000fd5b5050505060405180610100016040528060015481526020018673ffffffffffffffffffffffffffffffffffffffff1681526020018581526020018481526020013373ffffffffffffffffffffffffffffffffffffffff168152602001600015158152602001838152602001828152506002600060015481526020019081526020016000206000820151816000015560208201518160010160006101000a81548173ffffffffffffffffffffffffffffffffffffffff021916908373ffffffffffffffffffffffffffffffffffffffff160217905550604082015181600201556060820151816003015560808201518160040160006101000a81548173ffffffffffffffffffffffffffffffffffffffff021916908373ffffffffffffffffffffffffffffffffffffffff16021790555060a08201518160040160146101000a81548160ff02191690831515021790555060c0820151816005015560e082015181600601559050503373ffffffffffffffffffffffffffffffffffffffff168573ffffffffffffffffffffffffffffffffffffffff167f655a0cf9c8db81512be9a76dc1c5ae5380b8816ce6ad659cd61b715e2999d59a60015487876040516104e893929190610d14565b60405180910390a360016000819055505050505050565b60026020528060005260406000206000915090508060000154908060010160009054906101000a900473ffffffffffffffffffffffffffffffffffffffff16908060020154908060030154908060040160009054906101000a900473ffffffffffffffffffffffffffffffffffffffff16908060040160149054906101000a900460ff16908060050154908060060154905088565b600060647f000000000000000000000000000000000000000000000000000000000000000060646105c59190610d5c565b60026000858152602001908152602001600020600301546105e69190610de3565b6105f09190610db2565b9050919050565b6002600054141561063d576040517f08c379a000000000000000000000000000000000000000000000000000000000815260040161063490610c5b565b60405180910390fd5b6002600081905550600061065082610594565b9050600060026000848152602001908152602001600020905060008311801561067b57506001548311155b6106ba576040517f08c379a00000000000000000000000000000000000000000000000000000000081526004016106b190610c3b565b60405180910390fd5b813410156106fd576040517f08c379a00000000000000000000000000000000000000000000000000000000081526004016106f490610c1b565b60405180910390fd5b8060040160149054906101000a900460ff161561074f576040517f08c379a000000000000000000000000000000000000000000000000000000000815260040161074690610bdb565b60405180910390fd5b8060040160009054906101000a900473ffffffffffffffffffffffffffffffffffffffff1673ffffffffffffffffffffffffffffffffffffffff166108fc82600301549081150290604051600060405180830381858888f193505050501580156107bd573d6000803e3d6000fd5b507f000000000000000000000000000000000000000000000000000000000000000073ffffffffffffffffffffffffffffffffffffffff166108fc8260030154846108089190610e3d565b9081150290604051600060405180830381858888f19350505050158015610833573d6000803e3d6000fd5b5060018160040160146101000a81548160ff0219169083151502179055508060010160009054906101000a900473ffffffffffffffffffffffffffffffffffffffff1673ffffffffffffffffffffffffffffffffffffffff166323b872dd303384600201546040518463ffffffff1660e01b81526004016108b693929190610ba4565b600060405180830381600087803b1580156108d057600080fd5b505af11580156108e4573d6000803e3d6000fd5b505050503373ffffffffffffffffffffffffffffffffffffffff168160040160009054906101000a900473ffffffffffffffffffffffffffffffffffffffff1673ffffffffffffffffffffffffffffffffffffffff168260010160009054906101000a900473ffffffffffffffffffffffffffffffffffffffff1673ffffffffffffffffffffffffffffffffffffffff167f8b4c9c8a607d67b321582dd8461041b1dc2ceeca70c8b7f37f8e02095cf2e76d86856002015486600301546040516109b093929190610d14565b60405180910390a45050600160008190555050565b6000813590506109d48161109b565b92915050565b6000813590506109e9816110b2565b92915050565b600080600080600060a08688031215610a0757600080fd5b6000610a15888289016109c5565b9550506020610a26888289016109da565b9450506040610a37888289016109da565b9350506060610a48888289016109da565b9250506080610a59888289016109da565b9150509295509295909350565b600060208284031215610a7857600080fd5b6000610a86848285016109da565b91505092915050565b610a9881610e83565b82525050565b610aa781610e71565b82525050565b610ab681610e95565b82525050565b610ac581610edd565b82525050565b6000610ad8601183610d4b565b9150610ae382610fa8565b602082019050919050565b6000610afb601f83610d4b565b9150610b0682610fd1565b602082019050919050565b6000610b1e603383610d4b565b9150610b2982610ffa565b604082019050919050565b6000610b41601283610d4b565b9150610b4c82611049565b602082019050919050565b6000610b64601f83610d4b565b9150610b6f82611072565b602082019050919050565b610b8381610ed3565b82525050565b6000602082019050610b9e6000830184610a8f565b92915050565b6000606082019050610bb96000830186610a9e565b610bc66020830185610a9e565b610bd36040830184610b7a565b949350505050565b60006020820190508181036000830152610bf481610acb565b9050919050565b60006020820190508181036000830152610c1481610aee565b9050919050565b60006020820190508181036000830152610c3481610b11565b9050919050565b60006020820190508181036000830152610c5481610b34565b9050919050565b60006020820190508181036000830152610c7481610b57565b9050919050565b6000602082019050610c906000830184610b7a565b92915050565b600061010082019050610cac600083018b610b7a565b610cb9602083018a610abc565b610cc66040830189610b7a565b610cd36060830188610b7a565b610ce06080830187610a8f565b610ced60a0830186610aad565b610cfa60c0830185610b7a565b610d0760e0830184610b7a565b9998505050505050505050565b6000606082019050610d296000830186610b7a565b610d366020830185610b7a565b610d436040830184610b7a565b949350505050565b600082825260208201905092915050565b6000610d6782610ed3565b9150610d7283610ed3565b9250827fffffffffffffffffffffffffffffffffffffffffffffffffffffffffffffffff03821115610da757610da6610f4a565b5b828201905092915050565b6000610dbd82610ed3565b9150610dc883610ed3565b925082610dd857610dd7610f79565b5b828204905092915050565b6000610dee82610ed3565b9150610df983610ed3565b9250817fffffffffffffffffffffffffffffffffffffffffffffffffffffffffffffffff0483118215151615610e3257610e31610f4a565b5b828202905092915050565b6000610e4882610ed3565b9150610e5383610ed3565b925082821015610e6657610e65610f4a565b5b828203905092915050565b6000610e7c82610eb3565b9050919050565b6000610e8e82610eb3565b9050919050565b60008115159050919050565b6000610eac82610e71565b9050919050565b600073ffffffffffffffffffffffffffffffffffffffff82169050919050565b6000819050919050565b6000610ee882610eef565b9050919050565b6000610efa82610eb3565b9050919050565b6000610f0c82610ed3565b91507fffffffffffffffffffffffffffffffffffffffffffffffffffffffffffffffff821415610f3f57610f3e610f4a565b5b600182019050919050565b7f4e487b7100000000000000000000000000000000000000000000000000000000600052601160045260246000fd5b7f4e487b7100000000000000000000000000000000000000000000000000000000600052601260045260246000fd5b7f6974656d20616c726561647920736f6c64000000000000000000000000000000600082015250565b7f5072696365206d7573742062652067726561746572207468616e207a65726f00600082015250565b7f6e6f7420656e6f75676820657468657220746f20636f766572206974656d207060008201527f7269636520616e64206d61726b65742066656500000000000000000000000000602082015250565b7f6974656d20646f65736e27742065786973740000000000000000000000000000600082015250565b7f5265656e7472616e637947756172643a207265656e7472616e742063616c6c00600082015250565b6110a481610ea1565b81146110af57600080fd5b50565b6110bb81610ed3565b81146110c657600080fd5b5056fea26469706673582212206058a0911e3e369d1a571d1f5a06f08b9f0a944645b9f7a25a52470752755c3d64736f6c63430008040033",
  "linkReferences": {},
  "deployedLinkReferences": {}
}