{
  "_format": "hh-sol-artifact-1",
  "contractName": "NFT",
  "sourceName": "src/backend/contracts/NFT.sol",
  "abi": [
    {
      "inputs": [],
      "stateMutability": "nonpayable",
      "type": "constructor"
    },
    {
      "anonymous": false,
      "inputs": [
        {
          "indexed": true,
          "internalType": "address",
          "name": "owner",
          "type": "address"
        },
        {
          "indexed": true,
          "internalType": "address",
          "name": "approved",
          "type": "address"
        },
        {
          "indexed": true,
          "internalType": "uint256",
          "name": "tokenId",
          "type": "uint256"
        }
      ],
      "name": "Approval",
      "type": "event"
    },
    {
      "anonymous": false,
      "inputs": [
        {
          "indexed": true,
          "internalType": "address",
          "name": "owner",
          "type": "address"
        },
        {
          "indexed": true,
          "internalType": "address",
          "name": "operator",
          "type": "address"
        },
        {
          "indexed": false,
          "internalType": "bool",
          "name": "approved",
          "type": "bool"
        }
      ],
      "name": "ApprovalForAll",
      "type": "event"
    },
    {
      "anonymous": false,
      "inputs": [
        {
          "indexed": true,
          "internalType": "address",
          "name": "from",
          "type": "address"
        },
        {
          "indexed": true,
          "internalType": "address",
          "name": "to",
          "type": "address"
        },
        {
          "indexed": true,
          "internalType": "uint256",
          "name": "tokenId",
          "type": "uint256"
        }
      ],
      "name": "Transfer",
      "type": "event"
    },
    {
      "inputs": [
        {
          "internalType": "address",
          "name": "to",
          "type": "address"
        },
        {
          "internalType": "uint256",
          "name": "tokenId",
          "type": "uint256"
        }
      ],
      "name": "approve",
      "outputs": [],
      "stateMutability": "nonpayable",
      "type": "function"
    },
    {
      "inputs": [
        {
          "internalType": "address",
          "name": "owner",
          "type": "address"
        }
      ],
      "name": "balanceOf",
      "outputs": [
        {
          "internalType": "uint256",
          "name": "",
          "type": "uint256"
        }
      ],
      "stateMutability": "view",
      "type": "function"
    },
    {
      "inputs": [
        {
          "internalType": "uint256",
          "name": "tokenId",
          "type": "uint256"
        }
      ],
      "name": "getApproved",
      "outputs": [
        {
          "internalType": "address",
          "name": "",
          "type": "address"
        }
      ],
      "stateMutability": "view",
      "type": "function"
    },
    {
      "inputs": [
        {
          "internalType": "address",
          "name": "owner",
          "type": "address"
        },
        {
          "internalType": "address",
          "name": "operator",
          "type": "address"
        }
      ],
      "name": "isApprovedForAll",
      "outputs": [
        {
          "internalType": "bool",
          "name": "",
          "type": "bool"
        }
      ],
      "stateMutability": "view",
      "type": "function"
    },
    {
      "inputs": [
        {
          "internalType": "string",
          "name": "_tokenURI",
          "type": "string"
        }
      ],
      "name": "mint",
      "outputs": [
        {
          "internalType": "uint256",
          "name": "",
          "type": "uint256"
        }
      ],
      "stateMutability": "nonpayable",
      "type": "function"
    },
    {
      "inputs": [],
      "name": "name",
      "outputs": [
        {
          "internalType": "string",
          "name": "",
          "type": "string"
        }
      ],
      "stateMutability": "view",
      "type": "function"
    },
    {
      "inputs": [
        {
          "internalType": "uint256",
          "name": "tokenId",
          "type": "uint256"
        }
      ],
      "name": "ownerOf",
      "outputs": [
        {
          "internalType": "address",
          "name": "",
          "type": "address"
        }
      ],
      "stateMutability": "view",
      "type": "function"
    },
    {
      "inputs": [
        {
          "internalType": "address",
          "name": "from",
          "type": "address"
        },
        {
          "internalType": "address",
          "name": "to",
          "type": "address"
        },
        {
          "internalType": "uint256",
          "name": "tokenId",
          "type": "uint256"
        }
      ],
      "name": "safeTransferFrom",
      "outputs": [],
      "stateMutability": "nonpayable",
      "type": "function"
    },
    {
      "inputs": [
        {
          "internalType": "address",
          "name": "from",
          "type": "address"
        },
        {
          "internalType": "address",
          "name": "to",
          "type": "address"
        },
        {
          "internalType": "uint256",
          "name": "tokenId",
          "type": "uint256"
        },
        {
          "internalType": "bytes",
          "name": "data",
          "type": "bytes"
        }
      ],
      "name": "safeTransferFrom",
      "outputs": [],
      "stateMutability": "nonpayable",
      "type": "function"
    },
    {
      "inputs": [
        {
          "internalType": "address",
          "name": "operator",
          "type": "address"
        },
        {
          "internalType": "bool",
          "name": "approved",
          "type": "bool"
        }
      ],
      "name": "setApprovalForAll",
      "outputs": [],
      "stateMutability": "nonpayable",
      "type": "function"
    },
    {
      "inputs": [
        {
          "internalType": "bytes4",
          "name": "interfaceId",
          "type": "bytes4"
        }
      ],
      "name": "supportsInterface",
      "outputs": [
        {
          "internalType": "bool",
          "name": "",
          "type": "bool"
        }
      ],
      "stateMutability": "view",
      "type": "function"
    },
    {
      "inputs": [],
      "name": "symbol",
      "outputs": [
        {
          "internalType": "string",
          "name": "",
          "type": "string"
        }
      ],
      "stateMutability": "view",
      "type": "function"
    },
    {
      "inputs": [],
      "name": "tokenCount",
      "outputs": [
        {
          "internalType": "uint256",
          "name": "",
          "type": "uint256"
        }
      ],
      "stateMutability": "view",
      "type": "function"
    },
    {
      "inputs": [
        {
          "internalType": "uint256",
          "name": "tokenId",
          "type": "uint256"
        }
      ],
      "name": "tokenURI",
      "outputs": [
        {
          "internalType": "string",
          "name": "",
          "type": "string"
        }
      ],
      "stateMutability": "view",
      "type": "function"
    },
    {
      "inputs": [
        {
          "internalType": "address",
          "name": "from",
          "type": "address"
        },
        {
          "internalType": "address",
          "name": "to",
          "type": "address"
        },
        {
          "internalType": "uint256",
          "name": "tokenId",
          "type": "uint256"
        }
      ],
      "name": "transferFrom",
      "outputs": [],
      "stateMutability": "nonpayable",
      "type": "function"
    }
  ],
  "bytecode": "0x60806040523480156200001157600080fd5b506040518060400160405280600881526020017f44417070204e46540000000000000000000000000000000000000000000000008152506040518060400160405280600481526020017f4441505000000000000000000000000000000000000000000000000000000000815250816000908051906020019062000096929190620000b8565b508060019080519060200190620000af929190620000b8565b505050620001cd565b828054620000c69062000168565b90600052602060002090601f016020900481019282620000ea576000855562000136565b82601f106200010557805160ff191683800117855562000136565b8280016001018555821562000136579182015b828111156200013557825182559160200191906001019062000118565b5b50905062000145919062000149565b5090565b5b80821115620001645760008160009055506001016200014a565b5090565b600060028204905060018216806200018157607f821691505b602082108114156200019857620001976200019e565b5b50919050565b7f4e487b7100000000000000000000000000000000000000000000000000000000600052602260045260246000fd5b6128e680620001dd6000396000f3fe608060405234801561001057600080fd5b50600436106100f55760003560e01c806370a0823111610097578063b88d4fde11610066578063b88d4fde14610284578063c87b56dd146102a0578063d85d3d27146102d0578063e985e9c514610300576100f5565b806370a08231146101fc57806395d89b411461022c5780639f181b5e1461024a578063a22cb46514610268576100f5565b8063095ea7b3116100d3578063095ea7b31461017857806323b872dd1461019457806342842e0e146101b05780636352211e146101cc576100f5565b806301ffc9a7146100fa57806306fdde031461012a578063081812fc14610148575b600080fd5b610114600480360381019061010f9190611bc0565b610330565b6040516101219190611f7b565b60405180910390f35b610132610412565b60405161013f9190611f96565b60405180910390f35b610162600480360381019061015d9190611c53565b6104a4565b60405161016f9190611f14565b60405180910390f35b610192600480360381019061018d9190611b84565b6104ea565b005b6101ae60048036038101906101a99190611a7e565b610602565b005b6101ca60048036038101906101c59190611a7e565b610662565b005b6101e660048036038101906101e19190611c53565b610682565b6040516101f39190611f14565b60405180910390f35b61021660048036038101906102119190611a19565b610734565b6040516102239190612138565b60405180910390f35b6102346107ec565b6040516102419190611f96565b60405180910390f35b61025261087e565b60405161025f9190612138565b60405180910390f35b610282600480360381019061027d9190611b48565b610884565b005b61029e60048036038101906102999190611acd565b61089a565b005b6102ba60048036038101906102b59190611c53565b6108fc565b6040516102c79190611f96565b60405180910390f35b6102ea60048036038101906102e59190611c12565b610a0f565b6040516102f79190612138565b60405180910390f35b61031a60048036038101906103159190611a42565b610a4b565b6040516103279190611f7b565b60405180910390f35b60007f80ac58cd000000000000000000000000000000000000000000000000000000007bffffffffffffffffffffffffffffffffffffffffffffffffffffffff1916827bffffffffffffffffffffffffffffffffffffffffffffffffffffffff191614806103fb57507f5b5e139f000000000000000000000000000000000000000000000000000000007bffffffffffffffffffffffffffffffffffffffffffffffffffffffff1916827bffffffffffffffffffffffffffffffffffffffffffffffffffffffff1916145b8061040b575061040a82610adf565b5b9050919050565b6060600080546104219061238e565b80601f016020809104026020016040519081016040528092919081815260200182805461044d9061238e565b801561049a5780601f1061046f5761010080835404028352916020019161049a565b820191906000526020600020905b81548152906001019060200180831161047d57829003601f168201915b5050505050905090565b60006104af82610b49565b6004600083815260200190815260200160002060009054906101000a900473ffffffffffffffffffffffffffffffffffffffff169050919050565b60006104f582610682565b90508073ffffffffffffffffffffffffffffffffffffffff168373ffffffffffffffffffffffffffffffffffffffff161415610566576040517f08c379a000000000000000000000000000000000000000000000000000000000815260040161055d906120f8565b60405180910390fd5b8073ffffffffffffffffffffffffffffffffffffffff16610585610b94565b73ffffffffffffffffffffffffffffffffffffffff1614806105b457506105b3816105ae610b94565b610a4b565b5b6105f3576040517f08c379a00000000000000000000000000000000000000000000000000000000081526004016105ea90612098565b60405180910390fd5b6105fd8383610b9c565b505050565b61061361060d610b94565b82610c55565b610652576040517f08c379a000000000000000000000000000000000000000000000000000000000815260040161064990612118565b60405180910390fd5b61065d838383610cea565b505050565b61067d8383836040518060200160405280600081525061089a565b505050565b6000806002600084815260200190815260200160002060009054906101000a900473ffffffffffffffffffffffffffffffffffffffff169050600073ffffffffffffffffffffffffffffffffffffffff168173ffffffffffffffffffffffffffffffffffffffff16141561072b576040517f08c379a0000000000000000000000000000000000000000000000000000000008152600401610722906120d8565b60405180910390fd5b80915050919050565b60008073ffffffffffffffffffffffffffffffffffffffff168273ffffffffffffffffffffffffffffffffffffffff1614156107a5576040517f08c379a000000000000000000000000000000000000000000000000000000000815260040161079c90612058565b60405180910390fd5b600360008373ffffffffffffffffffffffffffffffffffffffff1673ffffffffffffffffffffffffffffffffffffffff168152602001908152602001600020549050919050565b6060600180546107fb9061238e565b80601f01602080910402602001604051908101604052809291908181526020018280546108279061238e565b80156108745780601f1061084957610100808354040283529160200191610874565b820191906000526020600020905b81548152906001019060200180831161085757829003601f168201915b5050505050905090565b60075481565b61089661088f610b94565b8383610f51565b5050565b6108ab6108a5610b94565b83610c55565b6108ea576040517f08c379a00000000000000000000000000000000000000000000000000000000081526004016108e190612118565b60405180910390fd5b6108f6848484846110be565b50505050565b606061090782610b49565b60006006600084815260200190815260200160002080546109279061238e565b80601f01602080910402602001604051908101604052809291908181526020018280546109539061238e565b80156109a05780601f10610975576101008083540402835291602001916109a0565b820191906000526020600020905b81548152906001019060200180831161098357829003601f168201915b5050505050905060006109b161111a565b90506000815114156109c7578192505050610a0a565b6000825111156109fc5780826040516020016109e4929190611ef0565b60405160208183030381529060405292505050610a0a565b610a0584611131565b925050505b919050565b600060076000815480929190610a24906123f1565b9190505550610a3533600754611199565b610a41600754836111b7565b6007549050919050565b6000600560008473ffffffffffffffffffffffffffffffffffffffff1673ffffffffffffffffffffffffffffffffffffffff16815260200190815260200160002060008373ffffffffffffffffffffffffffffffffffffffff1673ffffffffffffffffffffffffffffffffffffffff16815260200190815260200160002060009054906101000a900460ff16905092915050565b60007f01ffc9a7000000000000000000000000000000000000000000000000000000007bffffffffffffffffffffffffffffffffffffffffffffffffffffffff1916827bffffffffffffffffffffffffffffffffffffffffffffffffffffffff1916149050919050565b610b528161122b565b610b91576040517f08c379a0000000000000000000000000000000000000000000000000000000008152600401610b88906120d8565b60405180910390fd5b50565b600033905090565b816004600083815260200190815260200160002060006101000a81548173ffffffffffffffffffffffffffffffffffffffff021916908373ffffffffffffffffffffffffffffffffffffffff160217905550808273ffffffffffffffffffffffffffffffffffffffff16610c0f83610682565b73ffffffffffffffffffffffffffffffffffffffff167f8c5be1e5ebec7d5bd14f71427d1e84f3dd0314c0f7b2291e5b200ac8c7c3b92560405160405180910390a45050565b600080610c6183610682565b90508073ffffffffffffffffffffffffffffffffffffffff168473ffffffffffffffffffffffffffffffffffffffff161480610ca35750610ca28185610a4b565b5b80610ce157508373ffffffffffffffffffffffffffffffffffffffff16610cc9846104a4565b73ffffffffffffffffffffffffffffffffffffffff16145b91505092915050565b8273ffffffffffffffffffffffffffffffffffffffff16610d0a82610682565b73ffffffffffffffffffffffffffffffffffffffff1614610d60576040517f08c379a0000000000000000000000000000000000000000000000000000000008152600401610d5790611fd8565b60405180910390fd5b600073ffffffffffffffffffffffffffffffffffffffff168273ffffffffffffffffffffffffffffffffffffffff161415610dd0576040517f08c379a0000000000000000000000000000000000000000000000000000000008152600401610dc790612018565b60405180910390fd5b610ddb838383611297565b610de6600082610b9c565b6001600360008573ffffffffffffffffffffffffffffffffffffffff1673ffffffffffffffffffffffffffffffffffffffff1681526020019081526020016000206000828254610e3691906122a4565b925050819055506001600360008473ffffffffffffffffffffffffffffffffffffffff1673ffffffffffffffffffffffffffffffffffffffff1681526020019081526020016000206000828254610e8d919061221d565b92505081905550816002600083815260200190815260200160002060006101000a81548173ffffffffffffffffffffffffffffffffffffffff021916908373ffffffffffffffffffffffffffffffffffffffff160217905550808273ffffffffffffffffffffffffffffffffffffffff168473ffffffffffffffffffffffffffffffffffffffff167fddf252ad1be2c89b69c2b068fc378daa952ba7f163c4a11628f55a4df523b3ef60405160405180910390a4610f4c83838361129c565b505050565b8173ffffffffffffffffffffffffffffffffffffffff168373ffffffffffffffffffffffffffffffffffffffff161415610fc0576040517f08c379a0000000000000000000000000000000000000000000000000000000008152600401610fb790612038565b60405180910390fd5b80600560008573ffffffffffffffffffffffffffffffffffffffff1673ffffffffffffffffffffffffffffffffffffffff16815260200190815260200160002060008473ffffffffffffffffffffffffffffffffffffffff1673ffffffffffffffffffffffffffffffffffffffff16815260200190815260200160002060006101000a81548160ff0219169083151502179055508173ffffffffffffffffffffffffffffffffffffffff168373ffffffffffffffffffffffffffffffffffffffff167f17307eab39ab6107e8899845ad3d59bd9653f200f220920489ca2b5937696c31836040516110b19190611f7b565b60405180910390a3505050565b6110c9848484610cea565b6110d5848484846112a1565b611114576040517f08c379a000000000000000000000000000000000000000000000000000000000815260040161110b90611fb8565b60405180910390fd5b50505050565b606060405180602001604052806000815250905090565b606061113c82610b49565b600061114661111a565b905060008151116111665760405180602001604052806000815250611191565b8061117084611438565b604051602001611181929190611ef0565b6040516020818303038152906040525b915050919050565b6111b38282604051806020016040528060008152506115e5565b5050565b6111c08261122b565b6111ff576040517f08c379a00000000000000000000000000000000000000000000000000000000081526004016111f690612078565b60405180910390fd5b8060066000848152602001908152602001600020908051906020019061122692919061183d565b505050565b60008073ffffffffffffffffffffffffffffffffffffffff166002600084815260200190815260200160002060009054906101000a900473ffffffffffffffffffffffffffffffffffffffff1673ffffffffffffffffffffffffffffffffffffffff1614159050919050565b505050565b505050565b60006112c28473ffffffffffffffffffffffffffffffffffffffff16611640565b1561142b578373ffffffffffffffffffffffffffffffffffffffff1663150b7a026112eb610b94565b8786866040518563ffffffff1660e01b815260040161130d9493929190611f2f565b602060405180830381600087803b15801561132757600080fd5b505af192505050801561135857506040513d601f19601f820116820180604052508101906113559190611be9565b60015b6113db573d8060008114611388576040519150601f19603f3d011682016040523d82523d6000602084013e61138d565b606091505b506000815114156113d3576040517f08c379a00000000000000000000000000000000000000000000000000000000081526004016113ca90611fb8565b60405180910390fd5b805181602001fd5b63150b7a0260e01b7bffffffffffffffffffffffffffffffffffffffffffffffffffffffff1916817bffffffffffffffffffffffffffffffffffffffffffffffffffffffff191614915050611430565b600190505b949350505050565b60606000821415611480576040518060400160405280600181526020017f300000000000000000000000000000000000000000000000000000000000000081525090506115e0565b600082905060005b600082146114b257808061149b906123f1565b915050600a826114ab9190612273565b9150611488565b60008167ffffffffffffffff8111156114f4577f4e487b7100000000000000000000000000000000000000000000000000000000600052604160045260246000fd5b6040519080825280601f01601f1916602001820160405280156115265781602001600182028036833780820191505090505b5090505b600085146115d95760018261153f91906122a4565b9150600a8561154e919061243a565b603061155a919061221d565b60f81b818381518110611596577f4e487b7100000000000000000000000000000000000000000000000000000000600052603260045260246000fd5b60200101907effffffffffffffffffffffffffffffffffffffffffffffffffffffffffffff1916908160001a905350600a856115d29190612273565b945061152a565b8093505050505b919050565b6115ef8383611663565b6115fc60008484846112a1565b61163b576040517f08c379a000000000000000000000000000000000000000000000000000000000815260040161163290611fb8565b60405180910390fd5b505050565b6000808273ffffffffffffffffffffffffffffffffffffffff163b119050919050565b600073ffffffffffffffffffffffffffffffffffffffff168273ffffffffffffffffffffffffffffffffffffffff1614156116d3576040517f08c379a00000000000000000000000000000000000000000000000000000000081526004016116ca906120b8565b60405180910390fd5b6116dc8161122b565b1561171c576040517f08c379a000000000000000000000000000000000000000000000000000000000815260040161171390611ff8565b60405180910390fd5b61172860008383611297565b6001600360008473ffffffffffffffffffffffffffffffffffffffff1673ffffffffffffffffffffffffffffffffffffffff1681526020019081526020016000206000828254611778919061221d565b92505081905550816002600083815260200190815260200160002060006101000a81548173ffffffffffffffffffffffffffffffffffffffff021916908373ffffffffffffffffffffffffffffffffffffffff160217905550808273ffffffffffffffffffffffffffffffffffffffff16600073ffffffffffffffffffffffffffffffffffffffff167fddf252ad1be2c89b69c2b068fc378daa952ba7f163c4a11628f55a4df523b3ef60405160405180910390a46118396000838361129c565b5050565b8280546118499061238e565b90600052602060002090601f01602090048101928261186b57600085556118b2565b82601f1061188457805160ff19168380011785556118b2565b828001600101855582156118b2579182015b828111156118b1578251825591602001919060010190611896565b5b5090506118bf91906118c3565b5090565b5b808211156118dc5760008160009055506001016118c4565b5090565b60006118f36118ee84612178565b612153565b90508281526020810184848401111561190b57600080fd5b61191684828561234c565b509392505050565b600061193161192c846121a9565b612153565b90508281526020810184848401111561194957600080fd5b61195484828561234c565b509392505050565b60008135905061196b81612854565b92915050565b6000813590506119808161286b565b92915050565b60008135905061199581612882565b92915050565b6000815190506119aa81612882565b92915050565b600082601f8301126119c157600080fd5b81356119d18482602086016118e0565b91505092915050565b600082601f8301126119eb57600080fd5b81356119fb84826020860161191e565b91505092915050565b600081359050611a1381612899565b92915050565b600060208284031215611a2b57600080fd5b6000611a398482850161195c565b91505092915050565b60008060408385031215611a5557600080fd5b6000611a638582860161195c565b9250506020611a748582860161195c565b9150509250929050565b600080600060608486031215611a9357600080fd5b6000611aa18682870161195c565b9350506020611ab28682870161195c565b9250506040611ac386828701611a04565b9150509250925092565b60008060008060808587031215611ae357600080fd5b6000611af18782880161195c565b9450506020611b028782880161195c565b9350506040611b1387828801611a04565b925050606085013567ffffffffffffffff811115611b3057600080fd5b611b3c878288016119b0565b91505092959194509250565b60008060408385031215611b5b57600080fd5b6000611b698582860161195c565b9250506020611b7a85828601611971565b9150509250929050565b60008060408385031215611b9757600080fd5b6000611ba58582860161195c565b9250506020611bb685828601611a04565b9150509250929050565b600060208284031215611bd257600080fd5b6000611be084828501611986565b91505092915050565b600060208284031215611bfb57600080fd5b6000611c098482850161199b565b91505092915050565b600060208284031215611c2457600080fd5b600082013567ffffffffffffffff811115611c3e57600080fd5b611c4a848285016119da565b91505092915050565b600060208284031215611c6557600080fd5b6000611c7384828501611a04565b91505092915050565b611c85816122d8565b82525050565b611c94816122ea565b82525050565b6000611ca5826121da565b611caf81856121f0565b9350611cbf81856020860161235b565b611cc881612527565b840191505092915050565b6000611cde826121e5565b611ce88185612201565b9350611cf881856020860161235b565b611d0181612527565b840191505092915050565b6000611d17826121e5565b611d218185612212565b9350611d3181856020860161235b565b80840191505092915050565b6000611d4a603283612201565b9150611d5582612538565b604082019050919050565b6000611d6d602583612201565b9150611d7882612587565b604082019050919050565b6000611d90601c83612201565b9150611d9b826125d6565b602082019050919050565b6000611db3602483612201565b9150611dbe826125ff565b604082019050919050565b6000611dd6601983612201565b9150611de18261264e565b602082019050919050565b6000611df9602983612201565b9150611e0482612677565b604082019050919050565b6000611e1c602e83612201565b9150611e27826126c6565b604082019050919050565b6000611e3f603e83612201565b9150611e4a82612715565b604082019050919050565b6000611e62602083612201565b9150611e6d82612764565b602082019050919050565b6000611e85601883612201565b9150611e908261278d565b602082019050919050565b6000611ea8602183612201565b9150611eb3826127b6565b604082019050919050565b6000611ecb602e83612201565b9150611ed682612805565b604082019050919050565b611eea81612342565b82525050565b6000611efc8285611d0c565b9150611f088284611d0c565b91508190509392505050565b6000602082019050611f296000830184611c7c565b92915050565b6000608082019050611f446000830187611c7c565b611f516020830186611c7c565b611f5e6040830185611ee1565b8181036060830152611f708184611c9a565b905095945050505050565b6000602082019050611f906000830184611c8b565b92915050565b60006020820190508181036000830152611fb08184611cd3565b905092915050565b60006020820190508181036000830152611fd181611d3d565b9050919050565b60006020820190508181036000830152611ff181611d60565b9050919050565b6000602082019050818103600083015261201181611d83565b9050919050565b6000602082019050818103600083015261203181611da6565b9050919050565b6000602082019050818103600083015261205181611dc9565b9050919050565b6000602082019050818103600083015261207181611dec565b9050919050565b6000602082019050818103600083015261209181611e0f565b9050919050565b600060208201905081810360008301526120b181611e32565b9050919050565b600060208201905081810360008301526120d181611e55565b9050919050565b600060208201905081810360008301526120f181611e78565b9050919050565b6000602082019050818103600083015261211181611e9b565b9050919050565b6000602082019050818103600083015261213181611ebe565b9050919050565b600060208201905061214d6000830184611ee1565b92915050565b600061215d61216e565b905061216982826123c0565b919050565b6000604051905090565b600067ffffffffffffffff821115612193576121926124f8565b5b61219c82612527565b9050602081019050919050565b600067ffffffffffffffff8211156121c4576121c36124f8565b5b6121cd82612527565b9050602081019050919050565b600081519050919050565b600081519050919050565b600082825260208201905092915050565b600082825260208201905092915050565b600081905092915050565b600061222882612342565b915061223383612342565b9250827fffffffffffffffffffffffffffffffffffffffffffffffffffffffffffffffff038211156122685761226761246b565b5b828201905092915050565b600061227e82612342565b915061228983612342565b9250826122995761229861249a565b5b828204905092915050565b60006122af82612342565b91506122ba83612342565b9250828210156122cd576122cc61246b565b5b828203905092915050565b60006122e382612322565b9050919050565b60008115159050919050565b60007fffffffff0000000000000000000000000000000000000000000000000000000082169050919050565b600073ffffffffffffffffffffffffffffffffffffffff82169050919050565b6000819050919050565b82818337600083830152505050565b60005b8381101561237957808201518184015260208101905061235e565b83811115612388576000848401525b50505050565b600060028204905060018216806123a657607f821691505b602082108114156123ba576123b96124c9565b5b50919050565b6123c982612527565b810181811067ffffffffffffffff821117156123e8576123e76124f8565b5b80604052505050565b60006123fc82612342565b91507fffffffffffffffffffffffffffffffffffffffffffffffffffffffffffffffff82141561242f5761242e61246b565b5b600182019050919050565b600061244582612342565b915061245083612342565b9250826124605761245f61249a565b5b828206905092915050565b7f4e487b7100000000000000000000000000000000000000000000000000000000600052601160045260246000fd5b7f4e487b7100000000000000000000000000000000000000000000000000000000600052601260045260246000fd5b7f4e487b7100000000000000000000000000000000000000000000000000000000600052602260045260246000fd5b7f4e487b7100000000000000000000000000000000000000000000000000000000600052604160045260246000fd5b6000601f19601f8301169050919050565b7f4552433732313a207472616e7366657220746f206e6f6e20455243373231526560008201527f63656976657220696d706c656d656e7465720000000000000000000000000000602082015250565b7f4552433732313a207472616e736665722066726f6d20696e636f72726563742060008201527f6f776e6572000000000000000000000000000000000000000000000000000000602082015250565b7f4552433732313a20746f6b656e20616c7265616479206d696e74656400000000600082015250565b7f4552433732313a207472616e7366657220746f20746865207a65726f2061646460008201527f7265737300000000000000000000000000000000000000000000000000000000602082015250565b7f4552433732313a20617070726f766520746f2063616c6c657200000000000000600082015250565b7f4552433732313a2061646472657373207a65726f206973206e6f74206120766160008201527f6c6964206f776e65720000000000000000000000000000000000000000000000602082015250565b7f45524337323155524953746f726167653a2055524920736574206f66206e6f6e60008201527f6578697374656e7420746f6b656e000000000000000000000000000000000000602082015250565b7f4552433732313a20617070726f76652063616c6c6572206973206e6f7420746f60008201527f6b656e206f776e6572206e6f7220617070726f76656420666f7220616c6c0000602082015250565b7f4552433732313a206d696e7420746f20746865207a65726f2061646472657373600082015250565b7f4552433732313a20696e76616c696420746f6b656e2049440000000000000000600082015250565b7f4552433732313a20617070726f76616c20746f2063757272656e74206f776e6560008201527f7200000000000000000000000000000000000000000000000000000000000000602082015250565b7f4552433732313a2063616c6c6572206973206e6f7420746f6b656e206f776e6560008201527f72206e6f7220617070726f766564000000000000000000000000000000000000602082015250565b61285d816122d8565b811461286857600080fd5b50565b612874816122ea565b811461287f57600080fd5b50565b61288b816122f6565b811461289657600080fd5b50565b6128a281612342565b81146128ad57600080fd5b5056fea26469706673582212208696b9e3dac48855b3a66bf16c75ab874d3b07cf5c9e40b28b912ce00c77d46464736f6c63430008040033",
  "linkReferences": {},
  "deployedLinkReferences": {}
}